{
  "contractName": "StructStorage",
  "abi": [
    {
      "constant": true,
      "inputs": [
        {
          "name": "",
          "type": "uint256"
        }
      ],
      "name": "fm",
      "outputs": [
        {
          "name": "fid",
          "type": "bytes"
        },
        {
          "name": "fname",
          "type": "bytes32"
        },
        {
          "name": "loc",
          "type": "bytes32"
        },
        {
          "name": "crop",
          "type": "bytes32"
        },
        {
          "name": "contact",
          "type": "uint256"
        },
        {
          "name": "quantity",
          "type": "uint256"
        },
        {
          "name": "exprice",
          "type": "uint256"
        }
      ],
      "payable": false,
      "stateMutability": "view",
      "type": "function"
    },
    {
      "constant": true,
      "inputs": [
        {
          "name": "",
          "type": "uint256"
        }
      ],
      "name": "l",
      "outputs": [
        {
          "name": "lotno",
          "type": "bytes"
        },
        {
          "name": "grade",
          "type": "bytes"
        },
        {
          "name": "mrp",
          "type": "uint256"
        },
        {
          "name": "testdate",
          "type": "bytes32"
        },
        {
          "name": "expdate",
          "type": "bytes32"
        }
      ],
      "payable": false,
      "stateMutability": "view",
      "type": "function"
    },
    {
      "constant": true,
      "inputs": [],
      "name": "tester",
      "outputs": [
        {
          "name": "",
          "type": "address"
        }
      ],
      "payable": false,
      "stateMutability": "view",
      "type": "function"
    },
    {
      "constant": true,
      "inputs": [],
      "name": "s",
      "outputs": [
        {
          "name": "",
          "type": "uint256"
        }
      ],
      "payable": false,
      "stateMutability": "view",
      "type": "function"
    },
    {
      "constant": true,
      "inputs": [],
      "name": "t",
      "outputs": [
        {
          "name": "",
          "type": "uint256"
        }
      ],
      "payable": false,
      "stateMutability": "view",
      "type": "function"
    },
    {
      "constant": true,
      "inputs": [],
      "name": "c",
      "outputs": [
        {
          "name": "",
          "type": "uint256"
        }
      ],
      "payable": false,
      "stateMutability": "view",
      "type": "function"
    },
    {
      "constant": false,
      "inputs": [
        {
          "name": "addr",
          "type": "address"
        }
      ],
      "name": "fundaddr",
      "outputs": [],
      "payable": false,
      "stateMutability": "nonpayable",
      "type": "function"
    },
    {
      "constant": false,
      "inputs": [
        {
          "name": "receiver",
          "type": "address"
        },
        {
          "name": "amount",
          "type": "uint256"
        },
        {
          "name": "sender",
          "type": "address"
        }
      ],
      "name": "sendCoin",
      "outputs": [
        {
          "name": "sufficient",
          "type": "bool"
        }
      ],
      "payable": false,
      "stateMutability": "nonpayable",
      "type": "function"
    },
    {
      "constant": true,
      "inputs": [
        {
          "name": "addr",
          "type": "address"
        }
      ],
      "name": "getBalance",
      "outputs": [
        {
          "name": "",
          "type": "uint256"
        }
      ],
      "payable": false,
      "stateMutability": "view",
      "type": "function"
    },
    {
      "constant": false,
      "inputs": [
        {
          "name": "id",
          "type": "bytes"
        },
        {
          "name": "name",
          "type": "bytes32"
        },
        {
          "name": "loc",
          "type": "bytes32"
        },
        {
          "name": "cr",
          "type": "bytes32"
        },
        {
          "name": "con",
          "type": "uint256"
        },
        {
          "name": "q",
          "type": "uint256"
        },
        {
          "name": "pr",
          "type": "uint256"
        }
      ],
      "name": "produce",
      "outputs": [],
      "payable": false,
      "stateMutability": "nonpayable",
      "type": "function"
    },
    {
      "constant": true,
      "inputs": [
        {
          "name": "j",
          "type": "bytes"
        }
      ],
      "name": "getproduce",
      "outputs": [
        {
          "name": "",
          "type": "bytes"
        },
        {
          "name": "",
          "type": "bytes32"
        },
        {
          "name": "",
          "type": "bytes32"
        },
        {
          "name": "",
          "type": "bytes32"
        },
        {
          "name": "",
          "type": "uint256"
        },
        {
          "name": "",
          "type": "uint256"
        },
        {
          "name": "",
          "type": "uint256"
        }
      ],
      "payable": false,
      "stateMutability": "view",
      "type": "function"
    },
    {
      "constant": false,
      "inputs": [
        {
          "name": "ll",
          "type": "bytes"
        },
        {
          "name": "g",
          "type": "bytes"
        },
        {
          "name": "p",
          "type": "uint256"
        },
        {
          "name": "tt",
          "type": "bytes32"
        },
        {
          "name": "e",
          "type": "bytes32"
        }
      ],
      "name": "quality",
      "outputs": [],
      "payable": false,
      "stateMutability": "nonpayable",
      "type": "function"
    },
    {
      "constant": true,
      "inputs": [
        {
          "name": "k",
          "type": "bytes"
        }
      ],
      "name": "getquality",
      "outputs": [
        {
          "name": "",
          "type": "bytes"
        },
        {
          "name": "",
          "type": "bytes"
        },
        {
          "name": "",
          "type": "uint256"
        },
        {
          "name": "",
          "type": "bytes32"
        },
        {
          "name": "",
          "type": "bytes32"
        }
      ],
      "payable": false,
      "stateMutability": "view",
      "type": "function"
    }
  ],
  "bytecode": "0x60806040526001600055600160025534801561001a57600080fd5b50611aa58061002a6000396000f3fe6080604052600436106100c5576000357c0100000000000000000000000000000000000000000000000000000000900463ffffffff16806304eb580c146100ca57806307467a02146102475780632c6d8fa7146103255780635487e06e1461049057806354bb1361146105945780635ef53ded146106c95780638308abd41461088b57806386b714e2146108e257806392d0d1531461090d578063b81e3a5014610938578063c3da42b8146109cb578063f8b2cb4f146109f6578063fb5ade3114610a5b575b600080fd5b3480156100d657600080fd5b50610245600480360360a08110156100ed57600080fd5b810190808035906020019064010000000081111561010a57600080fd5b82018360208201111561011c57600080fd5b8035906020019184600183028401116401000000008311171561013e57600080fd5b91908080601f016020809104026020016040519081016040528093929190818152602001838380828437600081840152601f19601f820116905080830192505050505050509192919290803590602001906401000000008111156101a157600080fd5b8201836020820111156101b357600080fd5b803590602001918460018302840111640100000000831117156101d557600080fd5b91908080601f016020809104026020016040519081016040528093929190818152602001838380828437600081840152601f19601f820116905080830192505050505050509192919290803590602001909291908035906020019092919080359060200190929190505050610aac565b005b34801561025357600080fd5b506102806004803603602081101561026a57600080fd5b8101908080359060200190929190505050610c48565b6040518080602001888152602001878152602001868152602001858152602001848152602001838152602001828103825289818151815260200191508051906020019080838360005b838110156102e45780820151818401526020810190506102c9565b50505050905090810190601f1680156103115780820380516001836020036101000a031916815260200191505b509850505050505050505060405180910390f35b34801561033157600080fd5b506103eb6004803603602081101561034857600080fd5b810190808035906020019064010000000081111561036557600080fd5b82018360208201111561037757600080fd5b8035906020019184600183028401116401000000008311171561039957600080fd5b91908080601f016020809104026020016040519081016040528093929190818152602001838380828437600081840152601f19601f820116905080830192505050505050509192919290505050610d31565b6040518080602001888152602001878152602001868152602001858152602001848152602001838152602001828103825289818151815260200191508051906020019080838360005b8381101561044f578082015181840152602081019050610434565b50505050905090810190601f16801561047c5780820380516001836020036101000a031916815260200191505b509850505050505050505060405180910390f35b34801561049c57600080fd5b50610592600480360360e08110156104b357600080fd5b81019080803590602001906401000000008111156104d057600080fd5b8201836020820111156104e257600080fd5b8035906020019184600183028401116401000000008311171561050457600080fd5b91908080601f016020809104026020016040519081016040528093929190818152602001838380828437600081840152601f19601f8201169050808301925050505050505091929192908035906020019092919080359060200190929190803590602001909291908035906020019092919080359060200190929190803590602001909291905050506110f9565b005b3480156105a057600080fd5b506105cd600480360360208110156105b757600080fd5b81019080803590602001909291905050506112a4565b604051808060200180602001868152602001858152602001848152602001838103835288818151815260200191508051906020019080838360005b83811015610623578082015181840152602081019050610608565b50505050905090810190601f1680156106505780820380516001836020036101000a031916815260200191505b50838103825287818151815260200191508051906020019080838360005b8381101561068957808201518184015260208101905061066e565b50505050905090810190601f1680156106b65780820380516001836020036101000a031916815260200191505b5097505050505050505060405180910390f35b3480156106d557600080fd5b5061078f600480360360208110156106ec57600080fd5b810190808035906020019064010000000081111561070957600080fd5b82018360208201111561071b57600080fd5b8035906020019184600183028401116401000000008311171561073d57600080fd5b91908080601f016020809104026020016040519081016040528093929190818152602001838380828437600081840152601f19601f820116905080830192505050505050509192919290505050611419565b604051808060200180602001868152602001858152602001848152602001838103835288818151815260200191508051906020019080838360005b838110156107e55780820151818401526020810190506107ca565b50505050905090810190601f1680156108125780820380516001836020036101000a031916815260200191505b50838103825287818151815260200191508051906020019080838360005b8381101561084b578082015181840152602081019050610830565b50505050905090810190601f1680156108785780820380516001836020036101000a031916815260200191505b5097505050505050505060405180910390f35b34801561089757600080fd5b506108a0611795565b604051808273ffffffffffffffffffffffffffffffffffffffff1673ffffffffffffffffffffffffffffffffffffffff16815260200191505060405180910390f35b3480156108ee57600080fd5b506108f76117bb565b6040518082815260200191505060405180910390f35b34801561091957600080fd5b506109226117c1565b6040518082815260200191505060405180910390f35b34801561094457600080fd5b506109b16004803603606081101561095b57600080fd5b81019080803573ffffffffffffffffffffffffffffffffffffffff16906020019092919080359060200190929190803573ffffffffffffffffffffffffffffffffffffffff1690602001909291905050506117c7565b604051808215151515815260200191505060405180910390f35b3480156109d757600080fd5b506109e06118bf565b6040518082815260200191505060405180910390f35b348015610a0257600080fd5b50610a4560048036036020811015610a1957600080fd5b81019080803573ffffffffffffffffffffffffffffffffffffffff1690602001909291905050506118c5565b6040518082815260200191505060405180910390f35b348015610a6757600080fd5b50610aaa60048036036020811015610a7e57600080fd5b81019080803573ffffffffffffffffffffffffffffffffffffffff16906020019092919050505061190e565b005b610ab4611957565b60a060405190810160405280878152602001868152602001858152602001848152602001838152509050806008876040518082805190602001908083835b602083101515610b175780518252602082019150602081019050602083039250610af2565b6001836020036101000a03801982511681845116808217855250505050505090500191505090815260200160405180910390206000820151816000019080519060200190610b6692919061198d565b506020820151816001019080519060200190610b8392919061198d565b50604082015181600201556060820151816003015560808201518160040155905050600981908060018154018082558091505090600182039060005260206000209060050201600090919290919091506000820151816000019080519060200190610bef92919061198d565b506020820151816001019080519060200190610c0c92919061198d565b50604082015181600201556060820151816003015560808201518160040155505050600260008154809291906001019190505550505050505050565b600781815481101515610c5757fe5b9060005260206000209060070201600091509050806000018054600181600116156101000203166002900480601f016020809104026020016040519081016040528092919081815260200182805460018160011615610100020316600290048015610d035780601f10610cd857610100808354040283529160200191610d03565b820191906000526020600020905b815481529060010190602001808311610ce657829003601f168201915b5050505050908060010154908060020154908060030154908060040154908060050154908060060154905087565b60606000806000806000806006886040518082805190602001908083835b602083101515610d745780518252602082019150602081019050602083039250610d4f565b6001836020036101000a03801982511681845116808217855250505050505090500191505090815260200160405180910390206000016006896040518082805190602001908083835b602083101515610de25780518252602082019150602081019050602083039250610dbd565b6001836020036101000a03801982511681845116808217855250505050505090500191505090815260200160405180910390206001015460068a6040518082805190602001908083835b602083101515610e515780518252602082019150602081019050602083039250610e2c565b6001836020036101000a03801982511681845116808217855250505050505090500191505090815260200160405180910390206002015460068b6040518082805190602001908083835b602083101515610ec05780518252602082019150602081019050602083039250610e9b565b6001836020036101000a03801982511681845116808217855250505050505090500191505090815260200160405180910390206003015460068c6040518082805190602001908083835b602083101515610f2f5780518252602082019150602081019050602083039250610f0a565b6001836020036101000a03801982511681845116808217855250505050505090500191505090815260200160405180910390206004015460068d6040518082805190602001908083835b602083101515610f9e5780518252602082019150602081019050602083039250610f79565b6001836020036101000a03801982511681845116808217855250505050505090500191505090815260200160405180910390206005015460068e6040518082805190602001908083835b60208310151561100d5780518252602082019150602081019050602083039250610fe8565b6001836020036101000a038019825116818451168082178552505050505050905001915050908152602001604051809103902060060154868054600181600116156101000203166002900480601f0160208091040260200160405190810160405280929190818152602001828054600181600116156101000203166002900480156110d95780601f106110ae576101008083540402835291602001916110d9565b820191906000526020600020905b8154815290600101906020018083116110bc57829003601f168201915b505050505096509650965096509650965096509650919395979092949650565b611101611a0d565b60e060405190810160405280898152602001888152602001878152602001868152602001858152602001848152602001838152509050806006896040518082805190602001908083835b602083101515611170578051825260208201915060208101905060208303925061114b565b6001836020036101000a038019825116818451168082178552505050505050905001915050908152602001604051809103902060008201518160000190805190602001906111bf92919061198d565b506020820151816001015560408201518160020155606082015181600301556080820151816004015560a0820151816005015560c0820151816006015590505060078190806001815401808255809150509060018203906000526020600020906007020160009091929091909150600082015181600001908051906020019061124992919061198d565b506020820151816001015560408201518160020155606082015181600301556080820151816004015560a0820151816005015560c0820151816006015550505060008081548092919060010191905055505050505050505050565b6009818154811015156112b357fe5b9060005260206000209060050201600091509050806000018054600181600116156101000203166002900480601f01602080910402602001604051908101604052809291908181526020018280546001816001161561010002031660029004801561135f5780601f106113345761010080835404028352916020019161135f565b820191906000526020600020905b81548152906001019060200180831161134257829003601f168201915b505050505090806001018054600181600116156101000203166002900480601f0160208091040260200160405190810160405280929190818152602001828054600181600116156101000203166002900480156113fd5780601f106113d2576101008083540402835291602001916113fd565b820191906000526020600020905b8154815290600101906020018083116113e057829003601f168201915b5050505050908060020154908060030154908060040154905085565b60608060008060006008866040518082805190602001908083835b6020831015156114595780518252602082019150602081019050602083039250611434565b6001836020036101000a03801982511681845116808217855250505050505090500191505090815260200160405180910390206000016008876040518082805190602001908083835b6020831015156114c757805182526020820191506020810190506020830392506114a2565b6001836020036101000a03801982511681845116808217855250505050505090500191505090815260200160405180910390206001016008886040518082805190602001908083835b6020831015156115355780518252602082019150602081019050602083039250611510565b6001836020036101000a0380198251168184511680821785525050505050509050019150509081526020016040518091039020600201546008896040518082805190602001908083835b6020831015156115a4578051825260208201915060208101905060208303925061157f565b6001836020036101000a03801982511681845116808217855250505050505090500191505090815260200160405180910390206003015460088a6040518082805190602001908083835b60208310151561161357805182526020820191506020810190506020830392506115ee565b6001836020036101000a038019825116818451168082178552505050505050905001915050908152602001604051809103902060040154848054600181600116156101000203166002900480601f0160208091040260200160405190810160405280929190818152602001828054600181600116156101000203166002900480156116df5780601f106116b4576101008083540402835291602001916116df565b820191906000526020600020905b8154815290600101906020018083116116c257829003601f168201915b50505050509450838054600181600116156101000203166002900480601f01602080910402602001604051908101604052809291908181526020018280546001816001161561010002031660029004801561177b5780601f106117505761010080835404028352916020019161177b565b820191906000526020600020905b81548152906001019060200180831161175e57829003601f168201915b505050505093509450945094509450945091939590929450565b600460009054906101000a900473ffffffffffffffffffffffffffffffffffffffff1681565b60005481565b60025481565b600082600360008473ffffffffffffffffffffffffffffffffffffffff1673ffffffffffffffffffffffffffffffffffffffff16815260200190815260200160002054101561181957600090506118b8565b82600360008473ffffffffffffffffffffffffffffffffffffffff1673ffffffffffffffffffffffffffffffffffffffff1681526020019081526020016000206000828254039250508190555082600360008673ffffffffffffffffffffffffffffffffffffffff1673ffffffffffffffffffffffffffffffffffffffff16815260200190815260200160002060008282540192505081905550600190505b9392505050565b60015481565b6000600360008373ffffffffffffffffffffffffffffffffffffffff1673ffffffffffffffffffffffffffffffffffffffff168152602001908152602001600020549050919050565b6107d0600360008373ffffffffffffffffffffffffffffffffffffffff1673ffffffffffffffffffffffffffffffffffffffff1681526020019081526020016000208190555050565b60a06040519081016040528060608152602001606081526020016000815260200160008019168152602001600080191681525090565b828054600181600116156101000203166002900490600052602060002090601f016020900481019282601f106119ce57805160ff19168380011785556119fc565b828001600101855582156119fc579182015b828111156119fb5782518255916020019190600101906119e0565b5b509050611a099190611a54565b5090565b60e060405190810160405280606081526020016000801916815260200160008019168152602001600080191681526020016000815260200160008152602001600081525090565b611a7691905b80821115611a72576000816000905550600101611a5a565b5090565b9056fea165627a7a723058209066126521d6fc6d9960e6742d91db05e6c33d4286c7a3e0e01216a642b4d79d0029",
  "source": "pragma solidity >=0.4.22 <0.9.0;\r\n\r\ncontract StructStorage {\r\n\r\n    uint256 public s = 1; \r\n    uint256 public c;\r\n    uint256 public t=1;\r\n    mapping (address => uint) balances;\r\n\r\n    function fundaddr(address addr) public{\r\n        balances[addr] = 2000;\r\n    }\r\n\r\n        function sendCoin(address receiver, uint amount, address sender) public returns(bool sufficient){\r\n        \r\n        \r\n        if (balances[sender] < amount) \r\n        return false;\r\n        \r\n        balances[sender] -= amount;\r\n        balances[receiver] += amount;\r\n        \r\n                        \r\n        return true;\r\n        \r\n    }\r\n\r\n    function getBalance(address addr) view public returns(uint){\r\n        return balances[addr];\r\n    }\r\nstruct farmer {\r\n   \r\n    bytes fid;\r\n    bytes32 fname;\r\n    bytes32 loc;\r\n    bytes32 crop;\r\n    uint256 contact;\r\n    uint quantity;\r\n    uint exprice;\r\n}\r\n\r\nstruct lot {\r\n\r\n    bytes lotno;\r\n    bytes grade;\r\n    uint mrp;\r\n    bytes32 testdate;\r\n    bytes32 expdate;\r\n}\r\n\r\naddress public tester;\r\naddress owner;\r\n\r\nmapping (bytes => farmer) f1;\r\nfarmer[] public fm;\r\n\r\nmapping (bytes => lot) l1;\r\nlot[] public l;\r\n\r\n\r\n\r\nfunction produce(bytes memory id, bytes32 name, bytes32 loc, bytes32 cr, uint256 con, uint q, uint pr) public{\r\n               \r\n        StructStorage.farmer memory fnew = farmer(id,name,loc,cr,con,q,pr);\r\n        f1[id] = fnew;\r\n        fm.push(fnew);\r\n        s++;\r\n  \r\n}\r\n    \r\n function getproduce(bytes memory j) public view returns(bytes memory,bytes32,bytes32,bytes32,uint256,uint,uint) {\r\n        return (f1[j].fid,f1[j].fname,f1[j].loc,f1[j].crop,f1[j].contact,f1[j].quantity,f1[j].exprice);\r\n    }\r\n function quality(bytes memory ll, bytes memory g, uint256 p, bytes32 tt, bytes32 e) public{\r\n    \r\n        StructStorage.lot memory lnew=lot(ll,g,p,tt,e);\r\n        l1[ll]=lnew;\r\n        l.push(lnew);\r\n        t++;\r\n  \r\n }  \r\n function getquality(bytes memory k) public view returns(bytes memory,bytes memory,uint,bytes32,bytes32) {\r\n     return(l1[k].lotno,l1[k].grade,l1[k].mrp,l1[k].testdate,l1[k].expdate);\r\n     \r\n }\r\n}\r\n",
  "sourcePath": "C:/Users/kattu/Desktop/AgroChain/contracts/StructStorage.sol",
  "compiler": {
    "name": "solc",
    "version": "0.5.0+commit.1d4f565a.Emscripten.clang"
  },
  "schemaVersion": "3.0.1",
  "updatedAt": "2023-02-02T10:10:30.033Z",
  "devdoc": {
    "methods": {}
  },
  "userdoc": {
    "methods": {}
  }
}